:100000000C9466000C9483000C9483000C94830081
:100010000C9483000C9483000C9483000C94830054
:100020000C9483000C9483000C9483000C94830044
:100030000C9483000C9483000C9483000C94830034
:100040000C9483000C9483000C9483000C94830024
:100050000C9483000C9483000C9483000C94830014
:100060000C9483000C9483000C9483000C94830004
:100070000C9483000C9483000C9483000C948300F4
:100080000C9483000C9483000C9483000C948300E4
:100090000C9483000C9483000C9483000C948300D4
:1000A0000C9483000C9483000C9483000C948300C4
:1000B0000C9483000C9483000C9483000C948300B4
:1000C0000C9483000C9483000C94830011241FBEB5
:1000D000CFEFD8E0DEBFCDBF11E0A0E0B1E0E6EBAE
:1000E000F1E002C005900D92A032B107D9F721E0EE
:1000F000A0E2B1E001C01D92A632B207E1F70E9472
:10010000AF000C94D9000C940000E0ECF0E090817A
:1001100095FFFDCF8093C6000895CF93C82F8A30F6
:1001200019F48DE00E9485008C2F0E94850080E0EC
:1001300090E0CF9108951092C50083E38093C400AE
:1001400088E18093C100E2ECF0E080818E608083E2
:1001500080E091E090932301809322010895CF9352
:10016000DF93CDB7DEB761970FB6F894DEBF0FBE51
:10017000CDBF0E949B0081E1EEE0F1E0DE0111962F
:1001800001900D928A95E1F7CE0101960E94D2006E
:100190002FEF80E792E0215080409040E1F700C0CF
:1001A0000000F2CF80E00E94850080E00E94850080
:0601B0000895F894FFCF52
:1001B60000000003000000008D000000000037452D
:1001C6003030303430383031343934443630000051
:00000001FF
