:100000000C9466000C9483000C9483000C94830081
:100010000C9483000C9483000C9483000C94830054
:100020000C9483000C9483000C9483000C94830044
:100030000C9483000C9483000C9483000C94830034
:100040000C9483000C9483000C9483000C94830024
:100050000C9483000C9483000C9483000C94830014
:100060000C9483000C9483000C9483000C94830004
:100070000C9483000C9483000C9483000C948300F4
:100080000C9483000C9483000C9483000C948300E4
:100090000C9483000C9483000C9483000C948300D4
:1000A0000C9483000C9483000C9483000C948300C4
:1000B0000C9483000C9483000C9483000C948300B4
:1000C0000C9483000C9483000C94830011241FBEB5
:1000D000CFEFD8E0DEBFCDBF11E0A0E0B1E0E0EFB0
:1000E000F1E002C005900D92AC31B107D9F721E0E3
:1000F000ACE1B1E001C01D92A232B207E1F70E946B
:10010000E3000C94F6000C9400000E9496008DE031
:100110000E948E008AE00E948E000895E0ECF0E0DC
:10012000908195FFFDCF8093C6000895CF93DF9314
:10013000EC018881882331F021960E948E008991FC
:100140008111FBCFDF91CF9108951092C50080E11E
:100150008093C40088E18093C100E2ECF0E08081EC
:100160008660808380E091E090931F0180931E0160
:1001700008951092D50080E18093D40088E18093A7
:10018000D100E2EDF0E080818660808380E091E044
:1001900090931F0180931E010895E0EDF0E090819F
:1001A00095FFFDCF8093D6000895CF93C82F8A3056
:1001B00019F48DE00E94CD008C2F0E94CD0080E0CC
:1001C00090E0CF910895539A0E94A5000E94B90033
:1001D0008EE091E00E9485002FEF89E698E12150A2
:1001E00080409040E1F700C00000F2CFF894FFCFCC
:1001F0000000000300000000D5000000000073793B
:0C020000732067657420687765756900DD
:00000001FF
